{
  "contractName": "LionShare",
  "abi": [
    {
      "inputs": [
        {
          "internalType": "uint256",
          "name": "_initialSupply",
          "type": "uint256"
        }
      ],
      "stateMutability": "nonpayable",
      "type": "constructor"
    },
    {
      "anonymous": false,
      "inputs": [
        {
          "indexed": true,
          "internalType": "address",
          "name": "_from",
          "type": "address"
        },
        {
          "indexed": true,
          "internalType": "address",
          "name": "_to",
          "type": "address"
        },
        {
          "indexed": false,
          "internalType": "uint256",
          "name": "_value",
          "type": "uint256"
        }
      ],
      "name": "Approval",
      "type": "event"
    },
    {
      "anonymous": false,
      "inputs": [
        {
          "indexed": true,
          "internalType": "address",
          "name": "_from",
          "type": "address"
        },
        {
          "indexed": true,
          "internalType": "address",
          "name": "_to",
          "type": "address"
        },
        {
          "indexed": false,
          "internalType": "uint256",
          "name": "_value",
          "type": "uint256"
        }
      ],
      "name": "Transfer",
      "type": "event"
    },
    {
      "inputs": [],
      "name": "name",
      "outputs": [
        {
          "internalType": "string",
          "name": "",
          "type": "string"
        }
      ],
      "stateMutability": "view",
      "type": "function",
      "constant": true
    },
    {
      "inputs": [],
      "name": "totalSupply",
      "outputs": [
        {
          "internalType": "uint256",
          "name": "",
          "type": "uint256"
        }
      ],
      "stateMutability": "view",
      "type": "function",
      "constant": true
    },
    {
      "inputs": [
        {
          "internalType": "address",
          "name": "account",
          "type": "address"
        }
      ],
      "name": "balanceOf",
      "outputs": [
        {
          "internalType": "uint256",
          "name": "",
          "type": "uint256"
        }
      ],
      "stateMutability": "view",
      "type": "function",
      "constant": true
    },
    {
      "inputs": [
        {
          "internalType": "address",
          "name": "_to",
          "type": "address"
        },
        {
          "internalType": "uint256",
          "name": "_value",
          "type": "uint256"
        }
      ],
      "name": "transfer",
      "outputs": [
        {
          "internalType": "bool",
          "name": "",
          "type": "bool"
        }
      ],
      "stateMutability": "nonpayable",
      "type": "function"
    }
  ],
  "bytecode": "0x60806040526040518060400160405280600981526020017f4c696f6e536861726500000000000000000000000000000000000000000000008152506000908051906020019061004f9291906100cf565b5034801561005c57600080fd5b506040516108a53803806108a5833981810160405281019061007e9190610187565b8060018190555080600260003373ffffffffffffffffffffffffffffffffffffffff1673ffffffffffffffffffffffffffffffffffffffff1681526020019081526020016000208190555050610232565b8280546100db906101ba565b90600052602060002090601f0160209004810192826100fd5760008555610144565b82601f1061011657805160ff1916838001178555610144565b82800160010185558215610144579182015b82811115610143578251825591602001919060010190610128565b5b5090506101519190610155565b5090565b5b8082111561016e576000816000905550600101610156565b5090565b6000815190506101818161021b565b92915050565b60006020828403121561019957600080fd5b60006101a784828501610172565b91505092915050565b6000819050919050565b600060028204905060018216806101d257607f821691505b602082108114156101e6576101e56101ec565b5b50919050565b7f4e487b7100000000000000000000000000000000000000000000000000000000600052602260045260246000fd5b610224816101b0565b811461022f57600080fd5b50565b610664806102416000396000f3fe608060405234801561001057600080fd5b506004361061004c5760003560e01c806306fdde031461005157806318160ddd1461006f57806370a082311461008d578063a9059cbb146100bd575b600080fd5b6100596100ed565b6040516100669190610401565b60405180910390f35b61007761017b565b6040516100849190610423565b60405180910390f35b6100a760048036038101906100a2919061032a565b610185565b6040516100b49190610423565b60405180910390f35b6100d760048036038101906100d29190610353565b6101ce565b6040516100e491906103e6565b60405180910390f35b600080546100fa9061055f565b80601f01602080910402602001604051908101604052809291908181526020018280546101269061055f565b80156101735780601f1061014857610100808354040283529160200191610173565b820191906000526020600020905b81548152906001019060200180831161015657829003601f168201915b505050505081565b6000600154905090565b6000600260008373ffffffffffffffffffffffffffffffffffffffff1673ffffffffffffffffffffffffffffffffffffffff168152602001908152602001600020549050919050565b6000816101da33610185565b10156101e557600080fd5b81600260003373ffffffffffffffffffffffffffffffffffffffff1673ffffffffffffffffffffffffffffffffffffffff168152602001908152602001600020600082825461023491906104b0565b9250508190555081600260008573ffffffffffffffffffffffffffffffffffffffff1673ffffffffffffffffffffffffffffffffffffffff168152602001908152602001600020600082825461028a919061045a565b925050819055508273ffffffffffffffffffffffffffffffffffffffff163373ffffffffffffffffffffffffffffffffffffffff167fddf252ad1be2c89b69c2b068fc378daa952ba7f163c4a11628f55a4df523b3ef846040516102ee9190610423565b60405180910390a36001905092915050565b60008135905061030f81610600565b92915050565b60008135905061032481610617565b92915050565b60006020828403121561033c57600080fd5b600061034a84828501610300565b91505092915050565b6000806040838503121561036657600080fd5b600061037485828601610300565b925050602061038585828601610315565b9150509250929050565b610398816104f6565b82525050565b60006103a98261043e565b6103b38185610449565b93506103c381856020860161052c565b6103cc816105ef565b840191505092915050565b6103e081610522565b82525050565b60006020820190506103fb600083018461038f565b92915050565b6000602082019050818103600083015261041b818461039e565b905092915050565b600060208201905061043860008301846103d7565b92915050565b600081519050919050565b600082825260208201905092915050565b600061046582610522565b915061047083610522565b9250827fffffffffffffffffffffffffffffffffffffffffffffffffffffffffffffffff038211156104a5576104a4610591565b5b828201905092915050565b60006104bb82610522565b91506104c683610522565b9250828210156104d9576104d8610591565b5b828203905092915050565b60006104ef82610502565b9050919050565b60008115159050919050565b600073ffffffffffffffffffffffffffffffffffffffff82169050919050565b6000819050919050565b60005b8381101561054a57808201518184015260208101905061052f565b83811115610559576000848401525b50505050565b6000600282049050600182168061057757607f821691505b6020821081141561058b5761058a6105c0565b5b50919050565b7f4e487b7100000000000000000000000000000000000000000000000000000000600052601160045260246000fd5b7f4e487b7100000000000000000000000000000000000000000000000000000000600052602260045260246000fd5b6000601f19601f8301169050919050565b610609816104e4565b811461061457600080fd5b50565b61062081610522565b811461062b57600080fd5b5056fea26469706673582212208952dd29f7abe5ba5a0d13bec8c4fdd1fd50d2ace57438c598c3de39cf86996764736f6c63430008000033",
  "immutableReferences": {},
  "source": "// SPDX-License-Identifier: MIT\r\n\r\npragma solidity >=0.5.0;\r\n\r\ncontract LionShare{\r\n    string public name = \"LionShare\";\r\n    uint256 private _totalSupply;\r\n    mapping(address => uint256) private _balances;\r\n\r\n    event Transfer(\r\n        address indexed _from,\r\n        address indexed _to,\r\n        uint256 _value\r\n    );\r\n\r\n    event Approval(\r\n        address indexed _from,\r\n        address indexed _to,\r\n        uint256 _value\r\n    );\r\n    \r\n    //constructor\r\n    constructor(uint256 _initialSupply) {\r\n        _totalSupply = _initialSupply;\r\n\r\n        //allocate initial supply;\r\n        _balances[msg.sender] = _initialSupply;\r\n        \r\n    }\r\n    \r\n    function totalSupply() public view returns (uint256) {\r\n        return _totalSupply;\r\n    }\r\n\r\n    function balanceOf(address account) public view returns (uint256) {\r\n        return _balances[account];\r\n    }\r\n\r\n    //Transfer fn\r\n    function transfer(address _to, uint256 _value) public returns (bool){\r\n        require(balanceOf(msg.sender) >= _value);\r\n\r\n        _balances[msg.sender] -= _value;\r\n        _balances[_to] += _value;\r\n\r\n        emit Transfer(msg.sender,_to,_value);\r\n\r\n        return true;\r\n    }\r\n}",
  "sourcePath": "D:/gitRepo/Solidity_testing/LionsTestNET/contracts/LionShare.sol",
  "compiler": {
    "name": "solc",
    "version": "0.8.0+commit.c7dfd78e.Emscripten.clang"
  },
  "schemaVersion": "3.4.1",
  "updatedAt": "2021-05-25T13:57:00.376Z",
  "networkType": "ethereum",
  "devdoc": {
    "kind": "dev",
    "methods": {},
    "version": 1
  },
  "userdoc": {
    "kind": "user",
    "methods": {},
    "version": 1
  }
}